:1000000075817075D0001201ACC27F12009A120186
:10001000CF9002B812014B1201BD1201191200A1BA
:100020001200C512026C1201097F127C017D017E53
:1000300001120070120138DEF8DDF4DCF0DFEC3084
:100040007E08E5641340031200EED563DC75630A95
:10005000D564D675640AD565D012010612009512D2
:1000600001CF9002E612014B1200C5809E020341AF
:100070002097211201061201CF1201B79003061238
:10008000014B1201BD90031612014B1200B23097C2
:10009000FD1200CF22C293C29722C293D297C27E92
:1000A00022E562700AE561C394065003C27E22D243
:1000B0007E22E56514120185E56414120185E5636D
:1000C00014120185221201F4B443FA1200CF22D295
:1000D000931201CF1201B790032112014B307E041D
:1000E0001200EE221201BD90032912014B221201CF
:1000F000BD90033412014BE5651475F00AA4256424
:10010000141312018522C29322856265856164857C
:100110006063056505640563221201EDF562E56221
:100120001201851201EDF561E5611201851201ED03
:10013000F560E56012018522E56514120290E56420
:1001400014120283E5631412027622E4936006120D
:100150000171A380F622756F22D56FFD2212019BDB
:10016000F5A0C294C295D296120156C296120156BB
:100170002212019BF5A0D294C295D296120156C2CA
:10018000961201562212019B2430F5A0D294C295FA
:10019000D296120156C29612015622D2A7C294D20A
:1001A00095C296120156D29620A7F6227438315D78
:1001B0001201C912015D22748012015D2274C01205
:1001C000015D22740F12015D22740C12015D227414
:1001D0000112015D22740412015D22740612015D98
:1001E00022741012015D22741412015D221201F4B6
:1001F000C394302275B0F012020C120238C0F075B0
:10020000F004A4D0F025F09002C49322E5B054F09D
:10021000B4F004C27F80F5207FF275F000B4E003F3
:1002200002023505F0B4D00302023505F0B4B00384
:1002300002023505F0D27F22C0F075F000D2B0E5A1
:10024000B054F0B4F00302026705F0D2B1E5B05447
:10025000F0B4F00302026705F0D2B2E5B054F0B496
:10026000F00302026705F0E5F0D0F022758000C2CD
:1002700090C291C2922212029DF580B2901202A207
:10028000B2902212029DF580B2911202A2B2912286
:1002900012029DF580B2921202A2B292229002D571
:1002A00093F40000007566FF756704756801D568F2
:1002B000FDD567F7D566F1224C434420444953509D
:1002C0004C4159003738392F3435362A3132332DE5
:1002D00043303D2B003F065B4F666D7D077F6F7798
:1002E0007C395E7971004F76656E20517565737447
:1002F00020436F6D706C65746521005461736B20D1
:10030000446F6E652100454D455247454E43592087
:1003100053544F50210054696D65204C6566743A02
:10032000004F76656E204F4E005761697420612042
:100330006269740054696D65203D20323073207805
:0103400000BC
:00000001FF
